:020000040800F2
:10000000400900208902000887170008F716000839
:100010008517000885070008D11E000800000000B1
:10002000000000000000000000000000A718000809
:100030008707000800000000A91700083D19000804
:10004000A3020008A3020008A3020008A3020008FC
:10005000A3020008A302000889070008A302000801
:10006000A3020008A3020008A3020008A3020008DC
:10007000A3020008A3020008A3020008A3020008CC
:10008000A3020008A3020008A3020008A3020008BC
:10009000A3020008A3020008A3020008A3020008AC
:1000A000A3020008A3020008A3020008A30200089C
:1000B000A3020008A302000895190008A302000883
:1000C000A3020008A3020008A3020008A30200087C
:1000D000A3020008A51E0008A3020008A30200084E
:1000E000A3020008A3020008A3020008A30200085C
:1000F000A3020008A3020008A3020008A30200084C
:10010000A3020008A3020008A3020008A30200083B
:10011000A3020008A3020008A3020008A30200082B
:10012000A3020008A3020008A3020008A30200081B
:10013000A3020008A3020008A3020008A30200080B
:10014000A3020008A3020008A3020008A3020008FB
:10015000A3020008A3020008A3020008A3020008EB
:10016000A3020008A3020008A3020008A3020008DB
:10017000A3020008A3020008A30200080000000078
:10018000A3020008A302000800F002F800F06DF8D6
:100190000AA090E8000C82448344AAF10107DA45E2
:1001A00001D100F062F8AFF2090EBAE80F0013F0C7
:1001B000010F18BFFB1A43F0010318477830000005
:1001C000983000000A444FF0000C10F8013B13F087
:1001D000070408BF10F8014B1D1108BF10F8015BA0
:1001E000641E05D010F8016B641E01F8016BF9D193
:1001F00013F0080F1EBF10F8014BAD1C0C1B09D1EA
:100200006D1E58BF01F801CBFAD505E014F8016B5B
:1002100001F8016B6D1EF9D59142D6D370470000ED
:100220000023002400250026103A28BF78C1FBD8FF
:10023000520728BF30C148BF0B607047642900F0E7
:10024000A180752900F09E80782900F0D78063296D
:1002500000F02B82732900F03082002070471FB518
:1002600002F06AFF1FBD10B510BD00F059FA11462B
:10027000FFF7F5FF01F072FE00F077FA03B4FFF725
:10028000F2FF03BC01F02CFE0948804709480047F3
:10029000FEE7FEE7FEE7FEE7FEE7FEE7FEE7FEE736
:1002A000FEE7FEE704480549054A064B7047000093
:1002B000411900088901000840030020400900207E
:1002C0004005002040050020704700000FB404499D
:1002D00010B503AA029800F0F5F910BC5DF814FB04
:1002E0001000002070B5044685690068C10601D57C
:1002F000302600E02026C00707D070BDD4E90121D8
:1003000030469047206A401C20626D1EF6D570BDB5
:1003100070B5044685690078C00707D170BDD4E97F
:10032000012120209047206A401C20626D1EF6D5D6
:1003300070BD70B50C460546012A05D028788006A8
:1003400000D5EA69002302E0012305E05B1C93422B
:1003500002D2E05C0028F9D1A869E618C01AA861A9
:10036000286A184428622846FFF7BCFF04E0D5E954
:10037000012114F8010B9047B442F8D32846FFF747
:10038000C7FF70BD2DE9F0410646002410687529AD
:10039000314616A510D0AFF30080002802DA4042A3
:1003A00013A507E031688A0701D512A502E04907C5
:1003B00004D511A5012401E0AFF3008000210A2239
:1003C00006F1240709E0B0FBF2FCB0FBF2F302FBFC
:1003D0001C00303078541846491C0028F3D12346BD
:1003E0002A463046BDE8F04100F0FCB800000000AD
:1003F0002D0000002B0000002000000070B5044616
:100400000D4621461068AFF300802188090502D50A
:100410000F4A7A4402E00E4A7A440E32002104F177
:10042000240305E000F00F060009965D5E54491CA8
:100430000028F7D120780023000704D5702D02D0C2
:1004400009B1022311322046BDE8704000F0CAB85D
:100450004E2D00002DE9F05F894604464FF0000A5A
:10046000DFF874B1FB44C0F820A02046E16888475B
:10047000002874D0252806D0D4E901219047206AAD
:10048000401C2062F1E700265F462046E16888476D
:100490002028054607DB312D05D2781910F8200CED
:1004A00008B10643F1E7B00701D526F00406C4F809
:1004B0001CA00027C4F818A02A2D09D0284601F056
:1004C00008FD38B304EB8708303DC8F8185019E030
:1004D00059F8041B204604EB87029161E1688847C4
:1004E000012F054618D1E069002820DA26F0200601
:1004F0001DE0D8F8180000EB800005EB4000303814
:10050000C8F818002046E1688847054601F0E1FC7C
:100510000028EED1012F0AD02E2D08D12046E16807
:1005200088477F1C0546022F46F02006C4DBA069E1
:10053000002803DA404246F00106A061F00701D02E
:1005400026F010066C2D0BD0682D09D04C2D39D01B
:100550006A2D35D0742D35D07A2D33D016E038E0A1
:10056000E1682F4620468847B842054609D16C2FDE
:1005700026D04FF48060E168064320468847054650
:1005800004E06C2F1AD04FF4807006430DB3A5F130
:100590004100192802D8203546F400664A4629460B
:1005A000204626604E46FFF749FE80B101280BD059
:1005B000F61D26F0070000F1080956E74020E4E7A1
:1005C0008020D8E70020D6E706F104094DE7284649
:1005D00052E7206ABDE8F09F242D00007047704765
:1005E000704770472DE9F0470D46994692460446FC
:1005F00000F124080168880604D5E06921F01001A3
:10060000216000E00120A84201DD471B00E0002737
:10061000A1697A1902EB0900081AA0612078C006C6
:1006200002D42046FFF75EFE002608E0D4E901214F
:100630001AF806009047206A401C761C20624E453E
:10064000F4DB2078C0060AD52046FFF74BFE06E013
:10065000D4E9012130209047206A401C2062381ED6
:10066000A7F10107F4DC07E0D4E9012118F805003F
:100670009047206A401C2062281EA5F10105F3DC8A
:100680002046FFF745FE2078000602D50220BDE88F
:10069000F0870120FBE710B5436913B1AFF3008089
:1006A00001E0FFF746FE012010BD127800F12401A1
:1006B0000A7000224A700122EDE711684FF0FF3204
:1006C000E9E70000074B70B50D467B4400F011F8D8
:1006D0000446284600F020F810B14FF0FF3070BDFE
:1006E000204670BD7B18000001694A1C0261087831
:1006F000704700B58FB0CDE9013100210591054962
:100700007944CDE9031011466846FFF7A3FE0FB008
:1007100000BD0000E5FFFFFF007B00F08000704798
:10072000754600F02BF8AE4605006946534620F0AA
:100730000700854618B020B5FFF7B4FDBDE820409E
:100740004FF000064FF000074FF000084FF0000B8D
:1007500021F00701AC46ACE8C009ACE8C009ACE840
:10076000C009ACE8C0098D46704710B50446AFF328
:1007700000802046BDE81040FFF780BD004870476C
:10078000E0020020FEE77047012000F05BB80000A7
:100790000F4800B5026887B0002142F002020260F3
:1007A000006800F002000590012000900948CDE9A2
:1007B00001016946084800F051F800221146062060
:1007C00000F07CF9062000F06EF907B000BD0000D3
:1007D00030380240000021100004024090F835102B
:1007E000022903D08021416501207047052180F84E
:1007F00035100068016821F0010101600020704798
:1008000031B500F017F9009C0546601C00D0641C4F
:1008100000F010F9401BA042FAD338BD10B50128F2
:100820000CD1074C41020022204600F0F7F80022CC
:1008300021152046BDE8104000F0F0B810BD0000C2
:1008400000140240044910B50A68024202D0086050
:10085000FFF7E4FF10BD0000143C01402DE9F84F04
:10086000DFF88C91002209F1040A0AF1040B4FF021
:100870000F080BF1040E01260B6896403340B3427B
:1008800071D14C68022C01D0122C11D1D40800EB8C
:1008900084073D6A5407E40E08FA04FC25EA0C05B7
:1008A000D1F810C00CFA04FC4CEA050CC7F820C0C3
:1008B00007685400032591F804C0A5400CF0030C10
:1008C000AF430CFA04FC4CEA070CC0F800C04F68B8
:1008D000012F05D0022F03D0112F01D0122F11D1DB
:1008E0008768D1F80CC0AF430CFA04FC4CEA070C43
:1008F000C0F808C04768B7430E79C6F300169640A3
:100900003E434660C668AE438D68A5403543C5602A
:100910004C68E40065D5374C256845F48045256072
:10092000246822F0030504F480440094324C2E190C
:10093000D6F808789407250F08FA05F4A7432F4C3A
:10094000A04201D1002424E02D4CA04201D1012479
:100950001FE02C4CA04201D102241AE02A4CA042F4
:1009600002D1032415E03CE0284CA04201D104242C
:100970000FE0274CA04201D105240AE0254CA042FB
:1009800001D1062405E0244CA04201D1072400E057
:100990000824AC403C43C6F80848D9F800404D460E
:1009A0004E689C43F60300D51C432C60DAF80040E7
:1009B00055464E689C43B60300D51C432C60DBF8BB
:1009C00000405D464E689C43F60200D51C432C60F7
:1009D000DEF8004075464E689C43B60200D51C43C5
:1009E0002C60521C102AFFF446AFBDE8F88F0000BF
:1009F000003C014044380240003001400000024009
:100A00000004024000080240000C024000100240B6
:100A10000014024000180240001C02400AB181612B
:100A200070470904FBE7000001480068000C7047AC
:100A3000002004E001480068704700000400002026
:100A400002480168491C0160704700000400002052
:100A5000094810B5016841F400710160016841F472
:100A600080610160052000F049F80F2000F006F8D1
:100A700000F018F8002010BD003C024010B50446FC
:100A800007484FF47A710068B0FBF1F000F0A8FC61
:100A900000222146501E00F011F8002010BD000079
:100AA00000000020704700F01F0201219140400922
:100AB000800000F1E020C0F800117047F0B40E4B48
:100AC0001B68C3F30223C3F10704042C00D90424D8
:100AD0001D1D072D01D2002300E0DB1E012606FAB2
:100AE00004F56D1E0D409D409E40761E164045EA61
:100AF0000601F0BC00F048BE0CED00E0064A00F034
:100B0000070110684FF6FF03184040EA012003492F
:100B100008431060704700000CED00E00000FA058B
:100B20002DE9F047DFF85C9104460E46D9F8000045
:100B300000F00F01F0B28046B14207D289F8000000
:100B4000D9F8000000F00F00B04271D120784E4F6C
:100B5000800705D53868A16820F0F00008433860A8
:100B60002078C00756D048496068083901281AD053
:100B700002281BD0032819D009688907002957DAF1
:100B8000396821F0030101433960FFF753FF05463F
:100B9000606841F28831012811D002281CD0032856
:100BA0008A4625D032E009688903E7E709688901A8
:100BB000E4E7FFF73FFF411B514501D923E08A4697
:100BC0003868C0F381000128F3D123E0FFF732FF3A
:100BD000411B514501D916E08A463868C0F38100AF
:100BE0000228F3D116E0FFF725FF411B51450AD833
:100BF0003868C0F381000328F5D10BE0FFF71AFF36
:100C0000411B514502D90320BDE8F087386810F038
:100C10000C0FF3D1D9F80010484601F00F01B14292
:100C200008D980F80080006800F00F00B04201D0C1
:100C30000120E9E72078400705D53868E16820F40D
:100C4000E050084338602078000706D538682169ED
:100C500020F4604040EAC100386000F04BF8396889
:100C6000F02292FAA2F201F0F001B2FA82F2D1403F
:100C7000064A515CC840064908600F20FFF7FEFE97
:100C80000020C1E7003C0240083802404231000821
:100C90000000002008480949006809684FF4E05244
:100CA00092FAA2F201F4E051B2FA82F2D140044A7F
:100CB000515CC84070470000000000200838024026
:100CC0005231000808480949006809684FF4604239
:100CD00092FAA2F201F46041B2FA82F2D140044ADF
:100CE000515CC840704700000000002008380240F6
:100CF0005231000830B51948006810F00C0118484E
:100D000012D0441004290ED008290DD1134A121F05
:100D10001168136801F03F015D0247F6C07304D506
:100D2000B4FBF1F003E0204630BDB0FBF1F01168F8
:100D3000194093FAA3F3B3FA83F3D94048431168F7
:100D40004FF4403292FAA2F201F44031B2FA82F248
:100D5000D140491C4900B0FBF1F030BD08380240D9
:100D60000024F4002DE9F84F04460078DFF8F4A2DF
:100D7000BD4DC00748D0DAF800105046C1F38101DC
:100D8000012908D00068C0F3810002280AD1281D7B
:100D90000068400206D52868800335D560680028C1
:100DA00070D031E06068B0F5803F10D0B0F5A02F72
:100DB000286810D020F480302860286820F4802033
:100DC00028606068A0B1FFF735FE06460CE0286891
:100DD00040F48030F4E740F480202860F7E7FFF724
:100DE00029FE801B642873D828688003F7D50BE0A0
:100DF000FFF720FE064604E0FFF71CFE801B642878
:100E0000F1D828688003F7D42078DFF86082800763
:100E10004FF0010B4FF0000943D5DAF800105046AF
:100E200011F00C0F4FF0F80709D00068C0F38100F3
:100E300002280BD18B48001F0068400206D42868A6
:100E4000800713D5E06801281CD10FE0E068D0B11D
:100E5000C8F800B0FFF7EEFD064604E0FFF7EAFD34
:100E6000801B0228BFD828688007F7D5286897FA22
:100E7000A7F22169B2FA82F220F0F800914008430B
:100E800028600EE0EBE0C8F80090FFF7D3FD0646BF
:100E900004E0FFF7CFFD801B022819D828688007DF
:100EA000F7D42078000722D56E4F714861696C37FE
:100EB00079B1C0F800B0FFF7BDFD064604E0FFF7CA
:100EC000B9FD801B022803D838688007F7D50EE0EB
:100ED00079E0C0F80090FFF7ADFD064604E0FFF7AB
:100EE000A9FD801B02286ED838688007F7D42078C7
:100EF000400750D55B483830016841F080510160AF
:100F000000685C4F00F080500090386840F48070BA
:100F10003860FFF78FFD064604E0FFF78BFD801B6E
:100F2000022850D83868C005F7D54E4FA0686837FA
:100F300001280FD00528386810D020F00100386053
:100F4000386820F004003860A068B0B1FFF772FD87
:100F500006460EE0386840F00100F4E740F0040077
:100F60003860F7E7FFF766FD811B41F28830814268
:100F70006DD838688007F5D50DE0FFF75BFD0646B4
:100F800006E0FFF757FD811B41F2883081425ED8B1
:100F900038688007F5D4A069F0B3DAF80010C1F31F
:100FA000810102295BD00228484605D0C8F86000BC
:100FB000FFF740FD04464DE04746C8F86000FFF7E4
:100FC00039FD064605E042E0FFF734FD801B0228AC
:100FD0003DD828688001F7D4D4E90701084347F6D3
:100FE000C07292FAA2F2616AB2FA82F29140A26AE7
:100FF0004FF0FF3303EB52024FF4403393FAA3F365
:10100000B3FA83F39A4011434FF0706292FAA2F25E
:101010000843B2FA82F200E01FE0E16A914008431F
:101020001049091F0860C7F860B0FFF703FD0446C8
:1010300004E0FFF7FFFC001B022808D828688001A5
:10104000F7D50AE0FFF7F6FC001B022802D90320BF
:10105000BDE8F88F28688001F4D40020F8E701206B
:10106000F6E700000838024000380240000047421E
:10107000800E47420070004070B5040004D094F820
:101080005100002510B106E0012070BD84F85050D9
:10109000204600F037F8022084F8510020680168EB
:1010A00021F040010160D4E901010843D4E90312B1
:1010B0001143084361690843218B01F4007108431F
:1010C000E1690843216A0843A16A0843216808606E
:1010D000A069042101EA1040616A08432168486060
:1010E000A06AB0F5005F02D12168E06A086120685B
:1010F000C16921F40061C1616565012084F8510076
:10110000002070BD70B5164886B00024016841F01B
:1011100002010160006800F00200059010481430E0
:10112000016841F4805101600068052500F4805099
:1011300005902820009002200190CDE90305094E7A
:1011400069463046FFF78AFB1020CDE90004694666
:10115000304604950294FFF781FB06B070BD000095
:1011600030380240000402402DE9F84F04460020C8
:10117000DDF828909B4616460D46ADF800008046E7
:1011800094F85000012701280ED0012084F8500067
:10119000FFF750FC824694F85100616801280CD09A
:1011A000B1F5827F07D102E00220BDE8F88FA16887
:1011B00009B9042801D00220EBE045B13EB1BBF1F2
:1011C000000F04D094F85100012802D004E001205F
:1011D000DFE0052084F8510000206065A663A4F8D4
:1011E0003EB0A4F83CB02563A4F836B0A4F834B0FF
:1011F00020646064A06A4FF4005B58450AD12068FF
:1012000001684DF6FF72114001602068016841F4E9
:101210000051016020680168490603D4016841F06B
:1012200040010160E068B0F5006F606804D0E8B389
:10123000E08E012843D078E010B1E08E012837D14C
:10124000216835F8020BC860E08E401EE0862FE072
:10125000B7B1E08EA0B120688168890710D535F854
:10126000021BC160E08E401EE086E08E002738B988
:10127000A06A584504D12068016841F4805101609A
:10128000E08F50B120688168C90706D0C06826F891
:10129000020BE08F401EE0870127B9F1FF3F07D026
:1012A000FFF7C8FBA0EB0A01494500E007E06FD259
:1012B000E08E0028CCD1E08F0028C9D13BE0216826
:1012C00015F8010B0873E08E401EE0862DE0B7B1E3
:1012D000E08EA0B120688168890710D515F8011B40
:1012E0000173E08E401EE086E08E002738B9A06AC8
:1012F000584504D12068016841F480510160E08FB5
:1013000050B120688168C90706D0C06806F8010B93
:10131000E08F401EE0870127B9F1FF3F05D0FFF7BE
:1013200089FBA0EB0A01494532D2E08E0028CED1DC
:10133000E08F0028CBD1A06A584513D101224B463B
:1013400011462046CDF800A000F062FA20B1606D91
:1013500040F0020060651BE02068C068ADF8000046
:10136000BDF8000020688168C90608D5616D41F0AC
:10137000020161654FF6EF7181604FF001084B4645
:10138000012202212046CDF800A000F041FA10B160
:101390000320804610E052464946204600F028FAD5
:1013A00020B120204FF00108606505E0A06818B961
:1013B0002068C16880680090012084F851000020F6
:1013C00084F850004046F0E64FF0E0210428086918
:1013D00003D020F004000861704740F00400FAE7F1
:1013E00010B5401EB0F1807F01D3012010BD4FF039
:1013F000E02460610F21601700F0C6F90020A061B1
:1014000007202061002010BD10B5040003D094F81F
:10141000390010B107E0012010BD002084F8380029
:10142000204600F00CF8022084F83900211D2068C5
:1014300000F0CAFA012084F83900002010BD70477E
:101440000168CA6842F00102CA600068016841F0A0
:101450000101016000207047704710F8391F407883
:101460000843704770B5026804461068D168536934
:1014700010F00F0F50D003F0010501F490763543C2
:101480005DD0C20705D0CA0503D5E26B42F0010268
:10149000E263420705D5DA0703D0E26B42F00202AD
:1014A000E263820705D5DA0703D0E26B42F004025B
:1014B000E263020705D5DA0703D0E26B42F00802C7
:1014C000E263E26B002A33D0800604D5880602D599
:1014D000204600F019FB20684069E16BC0F38010E2
:1014E000090700D428B3204600F000FB20684169BA
:1014F00049061AD5416921F040014161606BA0B1F4
:101500001B490165606BFFF769F9002810D0606B1B
:10151000016DBDE870400847830610D58B060ED5D7
:101520002046BDE8704000F0EFBA2046FFF794FF78
:1015300070BD2046FFF790FF0020E06370BD0306FA
:1015400006D50B0604D52046BDE8704000F078BCF7
:101550004006F3D54806F1D5D168204621F0400178
:10156000D160202184F8391000F0C4F870BD00006B
:10157000DD1A000870B5040004D094F83900002585
:1015800010B106E0012070BD84F83850204600F00C
:1015900023F8242084F839002068C16821F4005120
:1015A000C160204600F0F6FA2068016921F49041FC
:1015B00001612068416921F02A0141612068C16808
:1015C00041F40051C160E563202084F8390084F8BB
:1015D0003A00002070BD000010B500681A4986B0BE
:1015E00088422FD11948016841F00101016000686B
:1015F00000F00100059015481430016841F0100119
:1016000001600068012100F0100005904FF40070A7
:1016100000900220CDE90101039007200C4C0490BA
:1016200069462046FFF71AF92115009169462046C0
:10163000FFF714F92520FFF736FA0322114625207B
:10164000FFF73CFA06B010BD0010014030380240F0
:101650000000024090F83A30202B1DD1D1B1CAB120
:1016600090F83830012B17D081628285C285002125
:10167000C163222280F83A2080F8381001684A6954
:1016800042F001024A610068C16841F49071C16092
:1016900000207047012070470220704730B5006875
:1016A000114988420CD1114A5088010408D41146CE
:1016B000440409784FF0000306D50A2901D053806D
:1016C00030BD40F400400DE00D2909D0C0F30D04F9
:1016D000074D401C80B229555080C728EFD830BD37
:1016E00040F48040508030BD001001400C000020CC
:1016F000440100207047FEE7F0B51E4887B0002582
:10170000016841F0200101600068012400F0200020
:1017100005904FF4C060CDE900040320CDE90240FC
:10172000154E69463046FFF799F8002261023046AF
:10173000FFF774F90022A1023046FFF76FF9022685
:10174000CDE900640D4FCDE9025669463846FFF7F2
:1017500085F801AA009482E8700069463846FFF7D0
:101760007DF8CDE90045694605480295FFF776F812
:1017700007B0F0BD303802400014024000080240BB
:1017800000040240FEE770470907090E002806DA48
:1017900000F00F0000F1E02080F8141D704700F108
:1017A000E02080F8001470477047000010B50F4C1F
:1017B0000D484FF4007120604FF48270606000208B
:1017C000A060E0602061C4E90501E0612062606220
:1017D000A0620A20E0622046FFF74EFC2068016804
:1017E00041F04001016010BD003001404C0200207A
:1017F00038B50B46009204460022802100F008F81C
:10180000002804D0606D40F020006065032038BDE2
:101810002DE9F0411D4617460E460446DDF81880B6
:1018200035E0681C33D02DB1FFF704F9A0EB0800B8
:10183000A8422CD32068416821F0E0014160606833
:10184000B0F5827F0BD1A068B0F5004F02D0B0F5A3
:10185000806F04D12068016821F040010160A06A16
:10186000B0F5005F0AD1206801684DF6FF721140A3
:1018700001602068016841F400510160012084F892
:101880005100002084F850000320BDE8F08120685A
:10189000806836EA000004D00020B842C1D10020A0
:1018A000F3E70120F9E7704770B5214C92B00025AD
:1018B000266846F080562660246804F0805411940F
:1018C0001C4C266846F48046266024680DF1240CE2
:1018D00004F480441194012400942404019402240B
:1018E00006948CE80D006605CDE907616846FFF7B0
:1018F00039FA00B1FEE70CA90F2081E831004FF45E
:10190000A0500F904FF48050109005210CA8FFF7C5
:1019100007F900B1FEE7FFF787F841F201018842BD
:1019200004D10548016841F48071016012B070BDB6
:101930004038024000700040003C0240FFF780B891
:101940001048016841F4700101600F48016841F0DE
:10195000010101600C4A00210832116002680B4B42
:101960001A400260031D0A4A1A60026822F48022AB
:10197000026005480C300160024958068039086051
:101980007047000088ED00E000380240FFFFF6FEDF
:101990001030002410B50A4C2068C068C043C0074E
:1019A00009D1084800698047216800204862216801
:1019B0006420C862E06021686FF00100086110BD1A
:1019C000A402002050000020F0B50268234D244EF0
:1019D000244FDFF894C0254B4FF0804EA84209D029
:1019E000704507D0B04205D0B84203D0604501D061
:1019F000984203D122F070044A682243A8421BD0C7
:101A0000704519D0B04217D0B84215D0604513D0F8
:101A1000984211D0164CA0420ED0164CA0420BD0CA
:101A2000154CA04208D0154CA04205D0144CA04241
:101A300002D0144CA04203D122F44074CA6822435D
:101A400002608A68C2620A688262A84201D0984233
:101A500001D10969016301214161F0BD000001402C
:101A60000004004000080040000C00400004014059
:101A7000004001400044014000480140001800407F
:101A8000001C004000200040F8B5064610480D46F6
:101A90000024016841F0040101600068032200F0A5
:101AA0000400009011461E20FFF708F81E20FEF7E4
:101AB000FAFF094A07481060C2E90154C2E9036409
:101AC0001046FFF7A1FCBDE8F8400348FFF7B8BC9B
:101AD0004038024000080040A402002010B5806B8E
:101AE0000021C185C184FFF7B7FC10BD0168CA6839
:101AF00022F49072CA6001684A6922F001024A61C8
:101B0000202180F83A10704710B590F83A10222939
:101B100001D0022010BD8168B1F5805F11D001694C
:101B2000002901681FD0496801F07F03816A4A1CBF
:101B300082620B70C18D491E0904090CC18518D041
:101B400026E00269816A002A0268526805D0D2B292
:101B50000A80816A491C8162ECE7C2F308020A80AC
:101B6000816A891CF7E74A68816A4B1C83620A70A4
:101B7000E0E70168CA6822F49072CA6001684A69A5
:101B800022F001024A61202180F83A10FFF786FD19
:101B9000002010BD2DE9F04104460068016921F4E0
:101BA0004052E168114301612068C16849F20C624A
:101BB00091432369A268E5691A4363692B431A4379
:101BC0000A43C26020684169A26921F440710A4356
:101BD0004261E0696425B0F5004F974A9749206853
:101BE0004FF032083FD0884201D090427CD1FFF7BD
:101BF00069F800EBC00101EB001061688900B0FBDF
:101C0000F1F6FFF75FF800EBC00101EB001061682F
:101C10008900B0FBF1F0B0FBF5F06FF0180148431C
:101C200006EB800108EB0110B0FBF5F000F0F006C8
:101C3000FFF748F800EBC00101EB00106168890074
:101C4000B0FBF1F0B0FBF5F006EB0016FFF73AF849
:101C500000EBC00101EB001061688900B0FBF1F7F7
:101C6000FFF730F8D2E0884201D090423DD1FFF733
:101C700029F800EBC00101EB001061684900B0FBDE
:101C8000F1F0B0FBF5F00601FFF71CF800EBC00126
:101C900001EB001061684900B0FBF1F7FFF712F8A3
:101CA00000EBC00101EB001061684900B0FBF1F0EE
:101CB000B0FBF5F06FF01801484307EB800108EB2B
:101CC000C100B0FBF5F000F0F80006EB4006FEF7AF
:101CD000F9FF00EBC00101EB001061684900B0FBA7
:101CE000F1F7FEF7EFFF3CE055E0FEF7D3FF00EB26
:101CF000C00101EB001061684900B0FBF1F0B0FBDE
:101D0000F5F00601FEF7C6FF00EBC00101EB001085
:101D100061684900B0FBF1F7FEF7BCFF00EBC001C2
:101D200001EB001061684900B0FBF1F0B0FBF5F089
:101D30006FF01801484307EB800108EBC100B0FBCE
:101D4000F5F000F0F80006EB4006FEF7A3FF00EB0D
:101D5000C00101EB001061684900B0FBF1F7FEF72C
:101D600099FF00EBC00101EB001061684900B0FB76
:101D7000F1F0B0FBF5F06FF01801484307EB80017C
:101D800008EBC100B0FBF5F000F00700216830441B
:101D90008860BDE8F081FEF77DFF00EBC00101EB3C
:101DA000001061688900B0FBF1F6FEF773FF00EBED
:101DB000C00101EB001061688900B0FBF1F0B0FBDD
:101DC000F5F06FF01801484306EB800108EB0110B5
:101DD000B0FBF5F000F0F006FEF75CFF00EBC00191
:101DE00001EB001061688900B0FBF1F0B0FBF5F089
:101DF00006EB0016FEF74EFF00EBC00101EB0010F2
:101E000061688900B0FBF1F7FEF744FF00EBC00109
:101E100001EB001061688900B0FBF1F0B0FBF5F058
:101E20006FF01801484307EB800108EB0110B0FB8D
:101E3000F5F000F00F00A9E7001401400010014088
:101E400090F83910212901D0022070478168B1F53E
:101E5000805F016A0BD04A1C0262026809785160F7
:101E6000C18C491E0904090CC1840ED017E00988F1
:101E70000268C1F30801516001690029016A02D0BA
:101E8000491C0162ECE7891CFBE70168CA6822F083
:101E90008002CA600068C16841F04001C160002052
:101EA0007047000010B50848FFF7DCFA0648FFF756
:101EB000D4FA2028FAD1012204490348FFF7CAFBCB
:101EC0000028F8D110BD00000C0200200C000020FA
:101ED000FEE730380A2801D2012070470020704701
:101EE0007047000010B504460420FFF76DFA014862
:101EF000046010BD0800002070B5054600244FF4B2
:101F00007A7603E0304600F005F8641CAC42F9D361
:101F100070BD000070B54FF0E02500216C69094AE2
:101F2000AB6912685043AA699A42FCD002D2A3EB73
:101F3000020302E0A4EB0206334419441346814233
:101F4000F1D370BD0800002003490A685206FCD591
:101F5000C2B24A6070470000001001408AB0FEF72C
:101F600077FD0723022208214FF4A870FFF79CFC9D
:101F7000A820FFF7B7FF4FF4E13000F041F9164811
:101F8000416854208847FFF7B7FBFFF70FFC00F0CC
:101F90004BF8FEF7FDFB114C012251022046FEF7E3
:101FA0003DFD012291022046FEF738FD4FF47A7480
:101FB00002E02046FEF724FC00F012F80028F8D1D9
:101FC00000F098F80024684600F07AF80028FAD16A
:101FD0008DF82040F7E70000500000200014024078
:101FE0001CB50FA00522D0E90010CDE9001069460C
:101FF000302000F0B1F805226946102000F024F8E6
:10200000002069460A5CA52A03D1401CC0B20528FD
:10201000F8D3052801D001201CBD00201CBD000004
:10202000A5A5A5A5A500000010B5064C002201211C
:102030002046FEF7F3FC20460122BDE810400221B5
:10204000FEF7ECBC000802402DE9F041DFF83C80CF
:1020500015460E460446002202214046FEF7DEFCED
:10206000204600F0B9F80746002405E0FF2000F004
:10207000B3F83055641CE4B2AC42F7D3012202211C
:102080004046FEF7CBFC3846BDE8F0810008024030
:1020900070B50A4C0546002202212046FEF7BEFC20
:1020A000284600F099F8FF2000F096F80546012236
:1020B00002212046FEF7B2FC284670BD000802400F
:1020C00070B505460720FFF7E3FF044601462720C9
:1020D00000F066F860060AD5202229466120FFF745
:1020E000B3FFFF21E22000F05BF8002070BD01206B
:1020F00070BD000010B5164C002201212046FEF7ED
:102100008DFC052213492A2000F026F80121212008
:1021100000F046F80121222000F042F82821252075
:1021200000F03EF82021312000F03AF80721262067
:1021300000F036F80F21202000F032F8012211467D
:102140002046FEF76BFCBDE810400120FEF758BBAF
:10215000000802405F3100082DE9F041DFF83C80C3
:1021600016460D460446002202214046FEF756FC64
:10217000204600F031F80746002405E015F8010B71
:1021800000F02AF8641CE4B2B442F7D30122022121
:102190004046FEF743FC3846BDE8F08100080240A7
:1021A00070B50B4C0E460546002202212046FEF774
:1021B00035FC284600F010F80546304600F00CF8D3
:1021C000012202212046FEF729FC284670BD0000AE
:1021D000000802400068704711B583B0FF24012356
:1021E00001AA03A905480094FEF7BEFF08B18DF8C7
:1021F00004409DF8040004B010BD00004C02002013
:102200000B4910B5094AC1E9002000208860C86068
:10221000086188610C2048610846FFF7ABF9BDE80A
:102220001040012203490248FFF714BA0010014090
:102230000C0200200C00002070B594B0064613ABD1
:1022400011AA694600F0DCF9002824D18DF840007D
:102250001D4C042514E0206805EBC10113AB405868
:1022600012AA08A900F0CCF9002814D1694608A8E0
:1022700000F001FC88B19DF84000401C8DF8400042
:10228000207D9DF840108842E5D8207D9DF84010C3
:1022900088420ED1042014B070BD9DF848009DF80E
:1022A0004410884201D90220F5E79DF84000A0754E
:1022B000EBE710A9304600F057FA0028EBD19DF863
:1022C000400060750020E6E7500000202DE9F04155
:1022D0007E4E9AB0B57D307DA8427CD9042130680D
:1022E00001EBC50119AB405818AA10A900F088F9F4
:1022F00010A977A0FDF7EAFF00240DF1180832E0DD
:10230000308B0121A140084217D0222172A0FDF795
:10231000DDFF204600F090FA811970A02431FDF70E
:10232000D5FF22216CA0FDF7D1FF204600F084FAF2
:102330003044243048F824000BE0204600F07CFABA
:102340003044416A48F82410F07D00B364A0FDF7E2
:10235000BDFF9DF86000401E844202D062A0FDF7E0
:10236000B5FF641CE4B29DF860008442C8D35FA04E
:10237000FDF7ACFF00F0A6FA707D0B2814D2DFE861
:1023800000F0080D31384048525E6B78890058A043
:10239000DDE7306850F83500804704E0306850F8D9
:1023A000351006988847074600F058FA9DF86400F3
:1023B00001286ED04FA0FDF789FF96F8EC000028A9
:1023C0000DD0D6F8F0000A21B0FBF1F201FB1202A9
:1023D000B0FBF1F100E002E047A0FDF777FF1AB093
:1023E000BDE8F081306850F83520DDE906019047FE
:1023F000D9E7306806AC50F8353094E807009847C4
:10240000D1E7306806AF50F8354097E80F00A04795
:10241000C9E70A980090306806AF50F8354097E851
:102420000F00A047BFE7DDE90A01CDE900013068F0
:1024300006AF50F8354097E80F00A047B3E70AAB66
:1024400006AF93E807008DE80700306850F8354084
:1024500097E80F00A047A6E70AAC06AF94E80F0084
:102460008DE80F00306850F8354097E80F00A0471E
:1024700099E70BAC06AF94E80F0001AC84E80F00BD
:102480000A980090306850F8354097E80F00A04750
:1024900089E711E00CAC06AF94E80F0002AC84E8C9
:1024A0000F00DDE90A01CDE90001306850F8354040
:1024B00097E80F00A04776E7F07D394618B116A0DF
:1024C000FDF704FF79E717A0FAE7000050000020AD
:1024D0000D0A257328000000256300002573000005
:1024E00030582558000000002C0000002900000092
:1024F000256C64003B0D0A0046756E6374696F6E4F
:102500002052756E2054696D653A25642E2531641C
:102510006D730D0A000000003D305825583B0D0A30
:10252000000000003D256C753B0D0A00F0B500254C
:102530002E462F462C4603782C2B03D0292B04D073
:102540001BB103E014B9012600E00CB317B1222B34
:102550002AD02AE0A3F1300CBCF1090F19D92D2B98
:1025600017D02B2B15D0A3F1610CBCF1050F10D99E
:10257000A3F1410CBCF1050F0BD9582B09D0782BD6
:1025800007D0222B0CD0202B1ED02C2B1CD0FF27A9
:102590000CE05EB9612B00D3203B01F8013B13E056
:1025A00026B901273C460FE0002426B10020087020
:1025B00017702846F0BD3CB15C2B02D16D1CEDB20A
:1025C000401C037801F8013B6D1CEDB2401CB2E7E2
:1025D00030B5002515700AE001F8014B1478401C55
:1025E000641CE4B214709C4201D3012030BD047815
:1025F000202C01D0002CEFD10D70002030BD000048
:102600002DE9FF4F002482B089469846A24627460E
:10261000012526462246EB46029915E0202810D0D7
:1026200002F07F03052B0CD202B9802202F07F0357
:10263000042B01D12A280AD1521C0BF80300D2B274
:1026400001E0852A04D0491C08780028E6D16AB147
:1026500002F07F0200200BF8020041A1584600F072
:102660000AFA38B1012188F8001000224FF0000862
:10267000029B15E0002088F80000F6E708F1010051
:1026800000F0FF0813F8010F202801D02A2807D1F5
:10269000184600F07DF9282802D02A2800D0C2462A
:1026A0001878282801D00028E8D10299BAF1000F43
:1026B00001D05144491C4FF000084346087888B1C6
:1026C000282804D0292806D0222810D011E083B968
:1026D000641CE4B20DE063B924B1641E14F0FF047D
:1026E00002D00DE04FF00108012F27D02FE04BB1B1
:1026F00000234CB12C280CD0202816D0282814D028
:102700005AB110E00123F4E7202815D009F8010B95
:1027100012E00125521CD2B207E0052E03D20BF8BD
:102720000600761CF6B26D1CEDB2012C04D1022D10
:1027300002D103257F1CFFB2491CBFE700200BF824
:10274000060007A1684600F096F900B90027049832
:102750000770002089F8000006B04046BDE8F08F01
:10276000766F6964000000002DE9F043002489467B
:10277000304DB5B0214622466B18491CC9B29A7635
:102780000A29F9D302E010F8011F99B1017828292C
:10279000F9D1461C4FF0010833AA69463046FFF7CD
:1027A000C5FE06449DF8CC0040B1012824D0FF2886
:1027B00036D10BE0012035B0BDE8F0839DF8000074
:1027C00070B334A9684600F0EBF808B10220F2E7D4
:1027D000204600F031F8284434994162298B08FAE8
:1027E00004F081432983042029198876641CE4B20B
:1027F0000A2C15D90320DEE7684600F051F9471C82
:10280000204600F019F841196846243100F03FF9DC
:10281000298B08FA04F00143281929838776E5E714
:102820003078292801D00028B6D189F8004000204E
:10283000C1E7000050000020024610B5002001460C
:10284000054B05E05C18491CA47EC9B22044C0B207
:102850009142F7D310BD00005000002009480068E5
:102860000169C943CA070849D1F8F02004D14FF6DD
:10287000FF731A44C1F8F020406A1044C1F8F00018
:1028800070470000A40200205000002000EBC001AF
:1028900001EB00104FF0FF3101EB800010B581B269
:1028A0004FF47A70FFF7F0F801490120C87510BDA8
:1028B000500000200346012000E05843491EC9B2E1
:1028C000FBD2704707486FF001010268116102688E
:1028D000090CD162C1600068002141620248C0F861
:1028E000F0107047A4020020500000202DE9F041B4
:1028F000164E3088010426D51549C0B2154F002563
:102900000D54B9681248884704000FD0104800F0F1
:10291000D1F8012801D0040014D0012C09D0022CD8
:1029200009D0032C09D0042C0CD108E0F8688047AA
:1029300008E009A004E00BA002E00DA000E00FA059
:10294000FDF7C4FC3580BDE8F08100000E000020DA
:102950004401002050000020BAAFCAFDB4EDCEF310
:10296000210D0A00B2CECAFDB4EDCEF3210D0A004E
:10297000B2CECAFDCCABB6E0210D0A00CEB4D5D2A2
:10298000B5BDC6A5C5E4B5C4BAAFCAFD210D0A00E0
:1029900010F8011F202901D10028F9D1C8B27047D1
:1029A0002DE9F0430E4600244FF00A082546014663
:1029B00034600A78A2F13003092B14D903782D2B47
:1029C00001D02B2B00D174B1A2F14103052B0AD900
:1029D000582A05D012F0FF0F17D00120BDE8F08370
:1029E000012C02D0F9E7412A01D34FF010080278F8
:1029F0002D2A04D02B2A04D0641CE4B203E0022563
:102A000000E00125401C491CD3E70746B8F1100F30
:102A100001D084B112E0032C01D20220DEE7387825
:102A2000302802D17878582801D00320D6E7A41E98
:102A3000E4B2BF1C01E00420D0E70CB1641EE4B294
:102A4000387801463038092801D8814601E0A1F1E3
:102A5000370921464046FFF72DFF326809FB002069
:102A6000306017F8011F0029E7D1022D01D1404243
:102A700030600020B2E702780B789A4201D0012042
:102A8000704712B1401C491CF5E7002070470278DE
:102A90000A700278002A02D0401C491CF7E77047F0
:102AA000002102781AB1491CC9B2401CF9E7084656
:102AB00070470000F0B58DB004461E2308AA694691
:102AC000FFF786FD0990002872D19DF82000271895
:102AD00000253E4C8DF820509DF8200054F8201021
:102AE0006846FFF7C8FF38B19DF82000401CC0B20F
:102AF0008DF820000728EFD39DF820000426344CE1
:102B0000072855D2DFE800F00404395A605F5E0000
:102B100030A0FDF7DBFB30A0FDF7D8FB3EA0FDF7B2
:102B2000D5FB4DA0FDF7D2FB5BA0FDF7CFFB6AA064
:102B3000FDF7CCFB78A0FDF7C9FB86A0FDF7C6FB2F
:102B40008BA0FDF7C3FB93A0FDF7C0FB97A0FDF79B
:102B5000BDFB9CA0FDF7BAFBA1A0FDF7B7FBA7A0AA
:102B6000FDF7B4FBB3A0FDF7B1FBC0A0FDF7AEFBD2
:102B7000CBA0FDF7ABFBD7A01BE016A0FDF7A6FB93
:102B8000E4A0FDF7A3FB8DF820500BE0216806EBD5
:102B9000C0000958EFA0FDF799FB9DF82000401CEC
:102BA0008DF82000217D9DF820008142EED856E26C
:102BB00057E2FDF78BFB00200DB0F0BD05A0FDF73F
:102BC00085FBCBE12CE20CE2EBE1000014000020DD
:102BD000500000200D0A00002D2D2D2D2D2D2D2D06
:102BE0002D2D2D2D2D2D2D2D2D2D2D2D2D2D2D2D15
:102BF00055534D4152542056332E332D2D2D2D2D0E
:102C00002D2D2D2D2D2D2D2D2D2D2D2D2D2D2D2DF4
:102C10002D2D2D200D0A00002020202055534D4140
:102C20005254CAC7D3C9414C49454E54454BBFAA1B
:102C3000B7A2B5C4D2BBB8F6C1E9C7C9B5C4B4AE72
:102C4000BFDAB5F7CAD4BBA5BDBBD7E9BCFE2CCD56
:102C5000A8B9FD200D0A0000CBFC2CC4E3BFC9D2EB
:102C6000D4CDA8B9FDB4AEBFDAD6FACAD6B5F7D37B
:102C7000C3B3CCD0F2C0EFC3E6B5C4C8CEBACEBAA7
:102C8000AFCAFD2CB2A2D6B4D0D02ED2F2B4CB2C87
:102C9000C4E3BFC90D0A0000D2D4CBE6D2E2B8FC2F
:102CA000B8C4BAAFCAFDB5C4CAE4C8EBB2CECAFD57
:102CB00028D6A7B3D6CAFDD7D62831302F3136BD96
:102CC000F8D6C62CD6A7B3D6B8BACAFD29A1A2D7C2
:102CD000D6B7FBB4AE0D0A00A1A2BAAFCAFDC8EBCD
:102CE000BFDAB5D8D6B7B5C8D7F7CEAAB2CECAFD27
:102CF000292CB5A5B8F6BAAFCAFDD7EEB6E0D6A76F
:102D0000B3D63130B8F6CAE4C8EBB2CECAFD2CB2A5
:102D1000A2D6A7B3D60D0A00BAAFCAFDB7B5BBD8C5
:102D2000D6B5CFD4CABE2ED6A7B3D6B2CECAFDCFA3
:102D3000D4CABEBDF8D6C6C9E8D6C3B9A6C4DC2C71
:102D4000D6A7B3D6BDF8D6C6D7AABBBBB9A6C4DC36
:102D50002E0D0A00BCBCCAF5D6A7B3D63A77777752
:102D60002E6F70656E6564762E636F6D0D0A0000C0
:102D700055534D415254D3D037B8F6CFB5CDB3C328
:102D8000FCC1EE28B1D8D0EBD0A1D0B4293A0D0ABD
:102D9000000000003F3A202020202020BBF1C8A1E5
:102DA000B0EFD6FAD0C5CFA20D0A000068656C70EE
:102DB0003A202020BBF1C8A1B0EFD6FAD0C5CFA2EF
:102DC0000D0A00006C6973743A202020BFC9D3C378
:102DD000B5C4BAAFCAFDC1D0B1ED0D0A0A000000FA
:102DE00069643A2020202020BFC9D3C3BAAFCAFDEE
:102DF000B5C44944C1D0B1ED0D0A0A006865783AFE
:102E000020202020B2CECAFD3136BDF8D6C6CFD4A0
:102E1000CABE2CBAF3B8FABFD5B8F12BCAFDD7D6C3
:102E2000BCB4D6B4D0D0BDF8D6C6D7AABBBB0D0AA9
:102E30000A0000006465633A20202020B2CECAFD5B
:102E40003130BDF8D6C6CFD4CABE2CBAF3B8FABF5B
:102E5000D5B8F12BCAFDD7D6BCB4D6B4D0D0BDF806
:102E6000D6C6D7AABBBB0D0A0A00000072756E74E5
:102E7000696D653A312CBFAAC6F4BAAFCAFDD4CB8E
:102E8000D0D0BCC6CAB13B302CB9D8B1D5BAAFCAC4
:102E9000FDD4CBD0D0BCC6CAB13B0D0A0A0000009D
:102EA000C7EBB0B4D5D5B3CCD0F2B1E0D0B4B8F163
:102EB000CABDCAE4C8EBBAAFCAFDC3FBBCB0B2CE50
:102EC000CAFDB2A2D2D4BBD8B3B5BCFCBDE1CAF82E
:102ED0002E0D0A002D2D2D2D2D2D2D2D2D2D2D2D91
:102EE0002D2D2D2D2D2D2D2D2D2D2D2D2D2D414CDF
:102EF00049454E54454B2D2D2D2D2D2D2D2D2D2D50
:102F00002D2D2D2D2D2D2D2D2D2D2D2D2D2D2D20FE
:102F10000D0A00002D2D2D2D2D2D2D2D2D2D2D2D7E
:102F20002D2D2D2D2D2D2D2D2D2D2D2D2DBAAFCA25
:102F3000FDC7E5B5A52D2D2D2D2D2D2D2D2D2D2D9F
:102F40002D2D2D2D2D2D2D2D2D2D2D2D2D2D2D2DB1
:102F5000200D0A0025730D0A0000000042A0FDF7B5
:102F6000B5F98DF8205016E0216806EBC0000BABD8
:102F700008580AAA6946FFF743FB9DF8201020680D
:102F800050F83120694648A0FDF7A0F99DF82000CF
:102F9000401C8DF82000217D9DF820008142E3D85F
:102FA0005DE0AFF2D030FDF791F908AA69463846E6
:102FB000FFF7BCFA9DF82000002843D109A9684614
:102FC000FFF7EEFC8DF8200010B104283AD102E0A2
:102FD0003AA009991CE03CA0FDF778F90120E075C2
:102FE0003DE038A0FDF772F908AA69463846FFF7B8
:102FF0009DFA9DF8200028BB09A96846FFF7D0FC80
:103000008DF8200010B104281CD104E033A00999E8
:10301000FDF75CF923E034A0FDF758F9E5751EE0F3
:1030200028A0FDF753F908AA69463846FFF77EFA4B
:103030009DF8200030B909A96846FFF7B1FC8DF86A
:10304000200008B10220B7E5099810F0FF0084F8CD
:10305000EC0001D029A000E02FA0FDF737F919A05E
:10306000A7E50120A8E500002D2D2D2D2D2D2D2DBE
:103070002D2D2D2D2D2D2D2D2D2D2D2D2D2D2D2D80
:103080002DBAAFCAFD204944202D2D2D2D2D2D2DDB
:103090002D2D2D2D2D2D2D2D2D2D2D2D2D2D2D2D60
:1030A0002D2D2D2D200D0A002573206964206973B4
:1030B0003A0D0A3058253038580D0A004845583A1C
:1030C000305825580D0A00003136BDF8D6C6B2CEAC
:1030D000CAFDCFD4CABE210D0A0000004445433AC0
:1030E000256C750D0A0000003130BDF8D6C6B2CE91
:1030F000CAFDCFD4CABE210D0A00000052756E2051
:1031000054696D652043616C63756C6174696F6EA1
:10311000204F4E0D0A00000052756E2054696D65F7
:103120002043616C63756C6174696F6E204F464615
:103130000D0A0000016070474FF04070E1EE100A88
:1031400070470000000000000000010203040607B1
:103150000809000000000102030434431010013488
:10316000431010013031323334353637383941426B
:1031700043444546403058003031323334353637D9
:103180003839616263646566403078000400000885
:10319000000000000000000200010000100000001C
:1031A0003F000000646563006964000072756E741E
:1031B000696D650068656C70000000006C6973746F
:1031C0000000000068657800766F69642077726996
:1031D00074655F616464722875333220616464725F
:1031E0002C7533322076616C290000007533322053
:1031F000726561645F616464722875333220616452
:1032000064722900766F69642064656C61795F6D12
:103210007328753136206E6D73290000766F6964EE
:103220002064656C61795F757328753332206E7523
:1032300073290000543200080000002044010000FF
:10324000C4010008A432000844010020FC0700006B
:103250002002000811031124F413A0311B08B40448
:103260001ABC041AA8041AC4041AA4041AAC04133D
:10327000D5211B08EC081A35041AC80413F91E14CA
:103280000804321408151F1B081C08223014208D56
:1032900028140839221B08CD041AED0C220402DC84
:0432A0000100000029
:040000050800018965
:00000001FF
