:020000040800F2
:100000001007002029020008A71200085D1100084F
:10001000A51200081504000879150008000000006A
:10002000000000000000000000000000BD130008F8
:100030001704000800000000A9120008BF13000800
:10004000430200084302000843020008430200087C
:100050004302000843020008190400084302000894
:10006000430200084302000843020008430200085C
:10007000430200084302000843020008430200084C
:10008000430200084302000843020008430200083C
:10009000430200084302000843020008430200082C
:1000A000430200084302000843020008430200081C
:1000B000430200084302000843020008430200080C
:1000C00043020008430200084302000843020008FC
:1000D00043020008430200084302000843020008EC
:1000E00043020008430200084302000843020008DC
:1000F00043020008430200084302000843020008CC
:1001000043020008430200084302000843020008BB
:1001100043020008430200084302000843020008AB
:10012000430200084302000843020008430200089B
:10013000430200084302000843020008430200088B
:10014000430200084302000843020008430200087B
:10015000430200084302000843020008430200086B
:10016000430200084302000843020008430200085B
:100170004302000843020008430200080000000098
:10018000430200084302000800F002F800F03CF8C7
:100190000AA090E8000C82448344AAF10107DA45E2
:1001A00001D100F031F8AFF2090EBAE80F0013F0F8
:1001B000010F18BFFB1A43F0010318478016000017
:1001C000A0160000103A24BF78C878C1FAD85207A8
:1001D00024BF30C830C144BF04680C6070470000C1
:1001E0000023002400250026103A28BF78C1FBD840
:1001F000520728BF30C148BF0B6070471FB501F0E0
:1002000007FB1FBD10B510BD00F0D1F81146FFF778
:10021000F5FF01F0C3F900F0EFF803B4FFF7F2FFC8
:1002200003BC01F0BAF900000948804709480047BB
:10023000FEE7FEE7FEE7FEE7FEE7FEE7FEE7FEE796
:10024000FEE7FEE704480549054A064B70470000F3
:100250005D1400088901000810010020100700202B
:100260001003002010030020704753EA020C00F036
:1002700069802DE9F04B4FF00006002B1FBFB3FA49
:1002800083F503FA05F424FA05F65E4012BF16431F
:10029000B2FA82F502FA05F4C5F120051EBF22FA72
:1002A00005FC44EA0C04203556EA044C4FEA144499
:1002B00018BF641C4FF000084FF00009904271EB2A
:1002C000030C39D3002919BFB1FA81F701FA07F6F7
:1002D000B0FA80F700FA07F6C7F120071EBF20FA30
:1002E00007FC46EA0C062037B6FBF4FCA7EB050733
:1002F000103F07F01F0BCBF120060CFA0BFB2CFA7A
:1003000006F644BFB3460026202FA4BF5E464FF03A
:10031000000B5BEA060C08BF4FF0010B19EB0B0951
:10032000ABFB027C48EB0608C01B06FB02CC0BFBB8
:1003300003CC71EB0C01C1E70B460246414648462F
:10034000BDE8F08B13B54FF000004FF00001AFF3A4
:100350000080BDE81C4070474FF0000200B5134616
:1003600094469646203922BFA0E80C50A0E80C50D5
:10037000B1F12001BFF4F7AF090728BFA0E80C5086
:1003800048BF0CC05DF804EB890028BF40F8042B7F
:1003900008BF704748BF20F8022B11F0804F18BFEC
:1003A00000F8012B704770477047704770477546DB
:1003B00000F02CF8AE4605006946534620F00700D1
:1003C000854618B020B5FFF73DFFBDE820404FF04F
:1003D00000064FF000074FF000084FF0000B21F02F
:1003E0000701AC46ACE8C009ACE8C009ACE8C009FC
:1003F000ACE8C0098D46704710B50446AFF30080E5
:100400002046BDE81040FFF708BF000000487047D5
:10041000AC000020FEE77047012000F04DB800005E
:100420000F4800B5026887B0002142F00202026066
:10043000006800F002000590012000904FF40410C5
:10044000CDE901016946074800F042F80022114653
:10045000062000F0A9F9062000F098F907B000BDC9
:10046000303802400004024072B6FEE770B5044620
:1004700000F02CF90546601C02D0044800780444C2
:1004800000F024F9401BA042FAD370BD0000002008
:1004900010B501280CD1074C41020022204600F083
:1004A0000FF9002221152046BDE8104000F008B9E0
:1004B00010BD000000140240044910B50A68024251
:1004C00002D00860FFF7E4FF10BD0000143C0140BB
:1004D0002DE9F84FDFF8BCA1002201250AF1040B39
:1004E00003264FF00F090BF1040E00BF0B6805FA4D
:1004F00002F42340A34270D10F7907F00307012FC4
:1005000001D0022F16D187684FEA420806FA08FC8C
:1005100027EA0C07D1F80CC00CFA08FC4CEA070CCF
:10052000C0F808C04768A7430C79C4F3001494408E
:100530003C4344600C79E443A4070AD0C4684FEA02
:10054000420C06FA0CF7BC438F6807FA0CF72743F6
:10055000C7600C7904F00304022C12D1D40800EB1C
:10056000840CDCF820405707FF0E09FA07F824EA4C
:100570000804D1F8108008FA07F848EA0408CCF813
:10058000208004684FEA420C06FA0CF7BC430F794E
:1005900007F0030707FA0CF7274307604C6814F4C9
:1005A000403F70D03C4C276847F480472760246860
:1005B00022F0030704F480440094384C07EB040C49
:1005C000DCF8084897074FEA177809FA08F7BC43A0
:1005D000334FB84202D1002724E054E0314FB842F3
:1005E00001D101271EE0304FB84201D1022719E0A6
:1005F0002E4FB84201D1032714E02D4FB84201D14C
:1006000004270FE02B4FB84201D105270AE02A4FFB
:10061000B84201D1062705E0284FB84201D107278B
:1006200000E0082707FA08F72743CCF80878DAF83B
:1006300000405746D1F804C09C435FEACC3C00D54B
:100640001C433C60DBF800405F46D1F804C09C438B
:100650005FEA8C3C00D51C433C60DEF800407746E6
:10066000D1F804C09C435FEACC2C00D51C433C600D
:10067000084F0C373C68D1F804C09C435FEA8C2CCF
:1006800000D51C433C60521C102AFFF42FAFBDE87C
:10069000F88F0000003C0140443802400030014027
:1006A000000002400004024000080240000C02402A
:1006B000001002400014024000180240001C0240DA
:1006C0000AB1816170470904FBE7000001488068B6
:1006D0007047000000000020024881680278114441
:1006E00081607047000000200B4810B5016841F49C
:1006F00000710160016841F480610160016841F4AA
:1007000080710160032000F06FF80F2000F006F800
:1007100000F024F8002010BD003C024070B50D4DE3
:1007200004464FF47A712878B1FBF0F00A49096861
:10073000B1FBF0F000F097FC48B9102C07D2002272
:100740002146501E00F030F800206C6070BD012082
:1007500070BD0000000000200C0000200A4808B511
:10076000016841F480410160006800F4804000901D
:100770000548001F016841F080510160006800F0E9
:100780008050009008BD000044380240002809DB7A
:1007900000F01F02012191404009800000F1E0209B
:1007A000C0F8001170470000F0B40E4B1B680C46F7
:1007B000C3F30223C3F10705042D00D90425191D35
:1007C000072901D2002300E0DB1E012606FA05F10D
:1007D000491E214099409E40761E16403143F0BC90
:1007E00000F0CBBE0CED00E0064900F007020868FF
:1007F0004FF6FF03184040EA0220034A1043086006
:10080000704700000CED00E00000FA052DE9F0470C
:100810000E46050065D0DFF81481D8F80000F7B265
:1008200000F00700B04207D288F80070D8F8000046
:1008300000F00700B04254D128683D4C810712D522
:10084000400703D5206840F4E05020602878000776
:1008500003D5206840F4604020602068A96820F03B
:10086000F000084320602878C0072DD03049686820
:100870000839012812D0022813D0032811D00968A2
:10088000890700292DDA216821F003010143216045
:10089000FFF71CFF814641F2883A0EE009688903A0
:1008A000EFE709688901ECE7FFF710FFA0EB09010A
:1008B000514502D90320BDE8F0872068696800F03F
:1008C0000C00B0EB810FEFD1D8F80010404601F0DA
:1008D0000701B14207D90770006800F00700B04275
:1008E00001D00120E7E72878400705D52068E968AE
:1008F00020F4E050084320602878000706D52068DF
:10090000296920F4604040EAC100206000F038F816
:100910002168084AC1F30311515CC84006490860C8
:1009200006480068FFF7FAFE0020C4E7003C0240DA
:1009300008380240241800080C00002004000020A1
:100940000448054900680968044AC1F38221515CE2
:10095000C84070470C0000200838024034180008D6
:100960000448054900680968044AC1F34231515CF2
:10097000C84070470C0000200838024034180008B6
:10098000154810B5006810F00C02144813D041103F
:10099000042A0FD0082A0ED10F4C241F2268236886
:1009A00002F03F025B0207D52068C0F38810A0FB6D
:1009B000010106E0084610BD2168C1F38811A1FBC2
:1009C00000010023FFF751FC2168C1F30141491CDC
:1009D0004900B0FBF1F010BD083802400024F400DB
:1009E0002DE9F84F04006ED02078DFF84C93C00753
:1009F000A9F104054AD009F104000168C1F381019D
:100A0000012908D00068C0F3810002280AD1D9F872
:100A10000000400206D52868800337D560680028AA
:100A2000E1D033E06068B0F5803F10D0B0F5A02F82
:100A3000286810D020F480302860286820F48020B6
:100A400028606068A8B1FFF741FE06460DE02868FF
:100A500040F48030F4E740F480202860F7E700BFDE
:100A6000FFF734FE801B642873D828688003F7D50D
:100A70000CE0FFF72BFE064605E000BFFFF726FE61
:100A8000801B6428F0D828688003F7D42078DFF82A
:100A9000AC8280074FF0000A3ED5A748001D0168D0
:100AA00011F00C0F08D00068C0F3810002280BD1B0
:100AB000D9F80000400207D42868800716D5E068FE
:100AC000012800D112E033E1E068B8B10120C8F894
:100AD0000000FFF7FBFD064605E000BFFFF7F6FD4F
:100AE000801B0228C0D828688007F7D528682169AC
:100AF00020F0F80040EAC10028600DE0C8F800A02E
:100B0000FFF7E4FD064604E0FFF7E0FD801B022846
:100B10001FD828688007F7D42078000722D5864F91
:100B200087486169703771B101210160FFF7CEFD1F
:100B3000064604E0FFF7CAFD801B022809D8386882
:100B40008007F7D50EE0C0F800A0FFF7BFFD06460E
:100B500005E082E0FFF7BAFD801B02287DD83868E7
:100B60008007F7D42078400768D5DFF8CCB100279C
:100B70000BF13C0BDBF80000C0000BD4DBF80010DD
:100B800041F08051CBF80010DBF80000012700F0A5
:100B9000805000906B4E3068C00510D4306840F42F
:100BA00080703060FFF792FD009005E0FFF78EFD4A
:100BB0000099401A022850D83068C005F6D55E4E1C
:100BC000A0686C3601280FD00528306810D020F0BE
:100BD00001003060306820F004003060A068B8B1D7
:100BE000FFF774FD00900FE0306840F00100F4E77B
:100BF00040F004003060F7E7FFF768FD0099411A04
:100C000041F28830814266D830688007F4D50EE022
:100C1000FFF75CFD009007E0FFF758FD0099411ACF
:100C200041F28830814256D830688007F4D42FB121
:100C3000DBF8001021F08051CBF80010A069C8B398
:100C40003D49091D0968C1F3810102294AD00228E2
:100C5000504607D0C8F8600000E03CE0FFF736FDE2
:100C600004463BE04746C8F86000FFF72FFD064604
:100C700005E000BFFFF72AFD801B02282BD828685B
:100C80008001F7D4D4E907010843A16A2E4A490834
:100C900002EB0141626A41EA8211084394F82C1088
:100CA00040EA0161C9F8001001203866FFF70EFD27
:100CB000044606E03EE000BFFFF708FD001B0228E7
:100CC00009D828688001F7D534E000BFFFF7FEFCA3
:100CD000001B022802D90320BDE8F88F2868800194
:100CE000F4D427E00128F7D0D9F80000E26900F435
:100CF000800191421CD1226A00F03F01914217D13C
:100D000047F6C071626A0140B1EB821F10D1A26A3E
:100D10004FF0FF3300F4403103EB5202B1EB024FCE
:100D200006D194F82C1000F07060B0EB016F01D088
:100D30000120D1E70020CFE70438024000004742FD
:100D4000800E4742007000400000FFFF70B50400B5
:100D500009D0606A002540B125616561A56294F8FB
:100D6000510040B10CE0012070BD6068B0F5827F99
:100D7000F4D0E561F2E784F85050204600F044F8E2
:100D8000022084F851002068016821F040010160D0
:100D9000A088218900F4827001F404410843A189EC
:100DA00001F400610843217C01F002010843217D28
:100DB00001F001010843218B01F400710843217FF8
:100DC00001F03801084394F8201001F08001084335
:100DD000218D01F40051084321680860A0690421B5
:100DE00001EA104094F8241001F010010843216832
:100DF00048602068C16921F40061C1616565012016
:100E000084F85100002070BD70B586B004461421EE
:100E10006846FFF7A1FA1849206888422AD1174886
:100E20000024016841F480510160006800F48050A2
:100E3000059012481438016841F001010160006812
:100E4000052500F001000590A02000900220CDE9CA
:100E500001040320CDE90305094E69463046FFF73A
:100E600037FB4020CDE900046946304604950294E2
:100E7000FFF72EFB06B070BD003001404438024041
:100E8000000002402DE9F84F044690F8500000277A
:100E90000A9E1D4692468B464FF0010901280ED04E
:100EA000012084F85000FFF711FC804694F85100AF
:100EB000616801280CD0B1F5827F07D102E00220E1
:100EC000BDE8F88FA16809B9042801D00227C2E063
:100ED000BBF1000F27D0BAF1000F24D01DB394F856
:100EE0005100042802D0052084F8510000206065DC
:100EF000C4F838A0E587A587C4F830B0E586A58694
:100F00002064606420680168490603D4016841F0E8
:100F100040010160E068B0F5006F606805D0E8B39B
:100F2000012D46D07FE0012795E008B1012D39D190
:100F3000206B21680088C860206B801C2063E08ED5
:100F4000401EE0862EE02068816889070FD5E18E7B
:100F500069B1B9F1010F0AD1216B0988C160206B19
:100F6000801C2063E08E401EE0864FF00009206860
:100F70008168C9070CD0E18F51B1C068A16B0880AE
:100F8000A06B801CA063E08F401EE0874FF001093A
:100F9000FFF79CFBA0EB0800B04200E009E001D3A2
:100FA000701C50D1E08E0028CDD1E08F0028CAD12E
:100FB0003FE0206B216800780873206B401C2063A1
:100FC000E08E401EE0862EE02068816889070FD5FC
:100FD000E18E69B1B9F1010F0AD1216B0978017372
:100FE000206B401C2063E08E401EE0864FF000091D
:100FF00020688168C9070CD0E18F51B1C068A16B2E
:101000000870A06B401CA063E08F401EE0874FF08B
:101010000109FFF75BFBA0EB0800B04202D3701C94
:1010200001D010E07EB1E08E0028CDD1E08F002805
:10103000CAD142463146204600F038F928B101278E
:101040002020606507E0032705E0A06818B9206844
:10105000C16880680090012084F85100002084F865
:10106000500038462CE710B5401EB0F1807F01D308
:10107000012010BD4FF0E02460610F21601700F0E7
:101080007CFA0020A06107202061002010BD70B50F
:10109000040004D094F83D00002510B106E00120C2
:1010A00070BD84F83C50204600F022F8242084F8DB
:1010B0003D002068C16821F40051C160204600F065
:1010C000D5F92068016921F49041016120684169E6
:1010D00021F02A0141612068C16841F40051C160DA
:1010E0002564202084F83D0084F83E00002070BD77
:1010F00010B586B0044614216846FFF72DF914494F
:101100002068884221D113480021026842F0100271
:101110000260006800F0100005900E481438026864
:1011200042F001020260006800F0010005904FF4F7
:10113000C06000900220CDE9010103200390072048
:10114000049069460448FFF7C3F906B010BD0000DB
:10115000001001404438024000000240FEE7000059
:10116000F0B587B014216846FFF7F6F82A48002446
:10117000016841F004010160016801F0040105917A
:10118000016841F020010160016801F02001059132
:10119000016841F080010160016801F08001059162
:1011A000016841F001010160016801F00101059150
:1011B000016841F0020101600068184E00F0020071
:1011C0004FF4C0650590002229463046FFF778FAB3
:1011D00000950125CDE90154694630460394FFF797
:1011E00077F90226CDE900650D4FCDE90246694643
:1011F0003846FFF76DF903960095CDE9015469462D
:101200003846FFF765F9CDE9005469460548029470
:10121000FFF75EF907B0F0BD30380240001402401D
:1012200000080240000402400F4810B50D4901605B
:101230004FF48271416000218160C1604FF40072FF
:101240000161C0E90512C1610162416281620A2146
:10125000C162FFF77BFD002803D0BDE81040FFF717
:1012600003B910BD00300140100000200C4810B53B
:101270000A4901604FF4E1314160002181600C2294
:10128000C160C0E904128161C161FFF700FF00285D
:1012900003D0BDE81040FFF7E7B810BD00100140D3
:1012A00068000020FEE7FEE77047000038B50446FE
:1012B0001248134B0068B0FBF3F04FF47A735843B5
:1012C00000906068B0F5827F0DD10B46009200223D
:1012D0008021204600F016F870B1606D40F02000CB
:1012E0006065032038BD009830B1401E0090206832
:1012F0008068C0430006F6D5002038BD0C000020F1
:1013000000366E012DE9F8431E4691468846044694
:10131000089DFFF7DBF9401B351AFFF7D7F90746A1
:1013200025480068C0F3CB30684338E0701C37D0E4
:10133000FFF7CCF9C01BA84203D215B1009860B3E7
:101340002CE02068416821F0E00141606068B0F560
:10135000827F0BD1A068B0F5004F02D0B0F5806F4E
:1013600004D12068016821F040010160A06AB0F555
:10137000005F09D12068016821F4005101602068F4
:10138000016841F400510160012084F851000020FF
:1013900084F850000320BDE8F8830025401E00902B
:1013A0002068816838EA010004D000214945BDD198
:1013B0000020F0E70121F9E70C0000207047FFF75B
:1013C0008BB9000030B593B030216846FEF7C4FFFA
:1013D00014210CA8FEF7C0FF1E480025016841F04B
:1013E00080510160006800F0805011901A48016837
:1013F00041F4804101600068022400F480401190B3
:1014000001200090000401908001CDE906400820F1
:1014100008904FF4A870CDE9090404200B906846A9
:10142000FFF7DEFA08B172B6FEE70CA90F2081E8DB
:1014300031004FF4A0500F904FF4805010900521D0
:101440000CA8FFF7E3F9002801D072B6FEE713B04D
:1014500030BD000040380240007000400248016882
:1014600041F470010160704788ED00E070B50446FA
:1014700000680169E26821F440511143016121696A
:10148000A068E26908436169114308432168CA689A
:1014900049F20C639A430243CA6020684169A26919
:1014A00021F440711143416131492068884202D0E2
:1014B0003049884202D1FFF753FA01E0FFF740FAC2
:1014C000E2690023192164253226B2F5004F6268D3
:1014D00028D0A0FB0101930F9200FEF7C6FE014643
:1014E000B0FBF5F06FF01802504301EB800006EB03
:1014F0000010B0FBF5F000F0F002B1FBF5F002EBEC
:101500000012B1FBF5F06FF01803584301EB8000B7
:1015100006EB0010B0FBF5F000F00F00216810445E
:10152000886070BDA0FB010192185B41FEF79DFE33
:101530000146B0FBF5F00201B1FBF5F06FF01803C6
:10154000584301EB800006EBC000B0FBF5F000F063
:10155000F80002EB4002B1FBF5F0584301EB8000CC
:1015600006EBC000B0FBF5F000F00700D6E7000086
:101570000010014000140140FEE70907090E002891
:1015800004DB00F1E02080F80014704700F00F0049
:1015900000F1E02080F8141D704770478AB0FFF713
:1015A000A3F8FFF70FFFFFF7DBFDFFF73DFEFFF7A7
:1015B0005DFE00F043F8FEF733FF01224FF4C061F7
:1015C0000B48FFF77DF84FF47A7402E02046FEF7EF
:1015D0004DFF00F00FF80028F8D100F095F8002436
:1015E000684600F077F80028FAD18DF82040F7E738
:1015F000001402401CB50FA10522D1E90001CDE97C
:1016000000016946302000F0B1F80522694610203B
:1016100000F024F8002069460A5CA52A03D1401C8A
:10162000C0B20528F8D3052801D001201CBD002038
:101630001CBD0000A5A5A5A5A500000010B5064C81
:10164000002201212046FFF73BF820460122BDE899
:1016500010400221FFF734B8000802402DE9F041A4
:10166000DFF83C8015460F46044600220221404622
:10167000FFF726F8204600F0B7F80646002405E0FC
:10168000FF2000F0B1F83855641CE4B2AC42F7D347
:10169000012202214046FFF713F83046BDE8F081F1
:1016A0000008024070B50A4D044600220221284677
:1016B000FFF706F8204600F097F8FF2000F094F8B6
:1016C0000446012202212846FEF7FAFF204670BD9B
:1016D0000008024070B505460720FFF7E3FF044607
:1016E0000146272000F066F860060AD52022294628
:1016F0006120FFF7B3FFFF21E22000F05BF800203C
:1017000070BD012070BD000010B5164C00220121F3
:101710002046FEF7D5FF052213492A2000F026F8BF
:101720000121212000F046F80121222000F042F89A
:101730002821252000F03EF82021312000F03AF841
:101740000721262000F036F80F21202000F032F883
:10175000012211462046FEF7B3FFBDE810400120EC
:10176000FEF784BE000802401F1800082DE9F04172
:10177000DFF83C8016460D46044600220221404612
:10178000FEF79EFF204600F02FF80746002405E0F4
:1017900015F8010B00F028F8641CE4B2B442F7D34A
:1017A000012202214046FEF78BFF3846BDE8F0815A
:1017B0000008024070B50B4D0E460446002202217F
:1017C0002846FEF77DFF204600F00EF8044630461E
:1017D00000F00AF8012202212846FEF771FF204698
:1017E00070BD00000008024011B583B0FF24012342
:1017F00001AA03A905480094FFF744FB08B18DF83E
:1018000004409DF8040004B010BD0000100000204A
:101810004FF04070E1EE100A70473443101001346D
:10182000431010010000000000000000010203044A
:101830000607080900000000010203045C18000804
:101840000000002010000000C40100086C1800080F
:101850001000002000070000E00100080100000067
:0C18600010000000000000000024F40054
:040000050800018965
:00000001FF
